:100000000C9464000C94180E0C94450E0C948C0007
:100010000C948C000C948C000C948C000C948C0030
:100020000C948C000C948C000C948C000C948C0020
:100030000C948C000C948C000C948C000C948C0010
:100040000C94720E0C948C000C9471110C94A311EE
:100050000C948C000C948C000C948C000C948C00F0
:100060000C94B5080C948C000000000800020100FC
:100070000003040700000000000000000102040863
:100080001020408001020408102001020408102002
:10009000040404040404040402020202020203032E
:1000A00003030303000000002300260029000000D2
:1000B0000000250028002B0000000000240027007D
:1000C0002A00BD05D307D31111241FBECFEFD8E0FE
:1000D000DEBFCDBF12E0A0E0B1E0EAEEFCE202C07C
:1000E00005900D92A63BB107D9F727E0A6EBB2E049
:1000F00001C01D92A930B207E1F710E0C8ECD0E0D2
:1001000004C02297FE010E946F16C23CD107C9F7B6
:100110000E9417120C9473160C9400008EBD000000
:100120000DB407FEFDCF8EB50895CF93DF930E94E7
:10013000BC0E6093BE027093BF028093C002909386
:10014000C1028091BE029091BF02A091C002B09105
:10015000C1024091BA025091BB026091BC02709101
:10016000BD02841B950BA60BB70B8093B602909330
:10017000B702A093B802B093B9028091B6029091F1
:10018000B702A091B802B091B9020B97A105B105D1
:10019000E0F16091C6027091C7028091C80290910F
:1001A000C90228E539E344E35CE30E942D1460931F
:1001B000C6027093C7028093C8029093C902C0918F
:1001C0008D0584E0C89FE0011124C251DD4F688194
:1001D00079818A819B8128E539E344E35CE30E94CD
:1001E0002D14688379838A839B838091BE029091CA
:1001F000BF02A091C002B091C1028093BA02909355
:10020000BB02A093BC02B093BD02DF91CF910895D1
:100210000F931F930E94BC0E0091840510918505D9
:100220002091860530918705601B710B820B930B23
:100230006B3071058105910578F00E94BC0E6093CA
:10024000840570938505809386059093870580913A
:1002500083058F5F809383051F910F9108951092FE
:10026000C6021092C7021092C8021092C9021092E0
:10027000E4021092E5021092E6021092E702109258
:10028000E3021092E20210928D0510928F050E94F7
:10029000BC0E6093920570939305809394059093A0
:1002A0009505109291051092900508958F929F9256
:1002B000AF92BF92CF92DF92EF92FF920E94BC0E5C
:1002C000C0908805D0908905E0908A05F0908B0554
:1002D0006C197D098E099F090E942E154B015C0146
:1002E0006091830570E080E090E00E942E156B0124
:1002F0007C0120E030E04AE754E4C501B4010E94EB
:1003000095149B01AC01C701B6010E9495146B01C5
:100310007C01109283050E94BC0E60938805709347
:10032000890580938A0590938B052BED39EF4EEB71
:100330005FE3C701B6010E94E415FF90EF90DF90E4
:10034000CF90BF90AF909F908F900895FF920F93A2
:100350001F93CF93DF93F82E08E010E0C0E0D0E0C9
:100360008F2D0E944E0FC80FD91F01501109C1F7E0
:10037000CE0123E0969587952A95E1F7DF91CF91FD
:100380001F910F91FF900895CF92DF92EF92FF920D
:10039000CF93DF9300D000D0CDB7DEB781E190E0FE
:1003A0000E94A601BC01882777FD8095982F0E94A6
:1003B00030159B01AC018FE090E029833A834B8399
:1003C0005C830E94A601BC01882777FD8095982F49
:1003D0000E9430156B017C0129813A814B815C813F
:1003E00063E373E383E590E40E9495149B01AC0101
:1003F000C701B6010E94E4150F900F900F900F9067
:10040000DF91CF91FF90EF90DF90CF900895CF9242
:10041000DF92EF92FF92CF93DF9300D000D0CDB761
:10042000DEB781E190E00E94A601BC01882777FD3C
:100430008095982F0E9430159B01AC0180E190E0DF
:1004400029833A834B835C830E94A601BC018827E1
:1004500077FD8095982F0E9430156B017C012981D2
:100460003A814B815C8163E373E383E590E40E940E
:1004700095149B01AC01C701B6010E94E4152DEC57
:100480003CEC4CE950E40E94E4150F900F900F9063
:100490000F90DF91CF91FF90EF90DF90CF90089574
:1004A0006F927F928F929F92AF92BF92CF92DF9284
:1004B000EF92FF920F931F93CF93DF93CAE0D5E0A3
:1004C000C12CD12C7601699170E080E090E00E940F
:1004D00030159B01AC01C701B6010E942D146B01C0
:1004E0007C0185E0C238D80771F720E030E040EFAA
:1004F00052E4C701B6010E9495146093DE02709326
:10050000DF028093E0029093E102CAE1D4E0C12CC3
:10051000D12C760169917991882777FD8095982F64
:100520000E9430159B01AC01C701B6010E942D1439
:100530006B017C01E5E0CA30DE0761F720E030E0C6
:1005400040EF52E40E9495140E94FD147093DD0266
:100550006093DC02612C712C812C912C02EF13E052
:100560004EEDA42E43E0B42EC0E0D0E0F801C190DF
:10057000D190E190F1908F019301A401C701B601E0
:100580000E94E01518162CF4F501C081D1813601C6
:100590004701F2E0AF0EB11C84E00A31180731F7D1
:1005A000C301D4018093D8029093D902A093DA02B8
:1005B000B093DB02D093D702C093D6028CE995E0CA
:1005C0000E94CC0B6093D2027093D3028093D4022A
:1005D0009093D5028DE995E00E94860B6093CE0240
:1005E0007093CF028093D0029093D10200E010E08C
:1005F000B0E0A0E0C0E0D0E0FE01EE0FFF1FEE0F84
:10060000FF1FE251FD4F2081318142815381B801AA
:100610008B2F9A2F0E942D148B012196CC33D1055C
:1006200019F0B82FA92FE8CFAB01BC014093CA0243
:100630005093CB026093CC027093CD028DE995E08C
:100640000E94810A6093C2027093C3028093C40225
:100650009093C5020E94C401609300017093010150
:1006600080930201909303010E94070260930401AA
:10067000709305018093060190930701DF91CF915C
:100680001F910F91FF90EF90DF90CF90BF90AF90B0
:100690009F908F907F906F9008950E94500260E32A
:1006A00071E08CE696E00E9464126091EC02709119
:1006B000ED024AE050E08CE696E00E9436136BE3D0
:1006C00071E08CE696E00E9464124091E80250913D
:1006D000E9026091EA027091EB0221E030E08CE6E1
:1006E00096E00E9429146AE471E08CE696E00E948C
:1006F00064124091E4025091E5026091E60270912B
:10070000E70221E030E08CE696E00E94291468E5DB
:1007100071E08CE696E00E9464126091E2027091B2
:10072000E3024AE050E08CE696E00E94361366E66B
:1007300071E08CE696E00E9464124091DE025091D6
:10074000DF026091E0027091E10221E030E08CE68E
:1007500096E00E94291469E771E08CE696E00E9419
:1007600064126091DC027091DD024AE050E08CE698
:1007700096E00E94361369E871E08CE696E00E94EC
:1007800064124091D8025091D9026091DA027091BE
:10079000DB0221E030E08CE696E00E9429146BE950
:1007A00071E08CE696E00E9464126091D60270912E
:1007B000D7024AE050E08CE696E00E9436136DEADC
:1007C00071E08CE696E00E9464124091D202509152
:1007D000D3026091D4027091D50221E030E08CE622
:1007E00096E00E94291468EB71E08CE696E00E9486
:1007F00064124091CE025091CF026091D00270916C
:10080000D10221E030E08CE696E00E94291460ECF1
:1008100071E08CE696E00E9464124091CA02509109
:10082000CB026091CC027091CD0222E030E08CE6E8
:1008300096E00E94291469EC71E08CE696E00E9433
:1008400064124091C6025091C7026091C802709133
:10085000C90222E030E08CE696E00E9429146FEE97
:1008600071E08CE696E00E9464124091C2025091C1
:10087000C3026091C4027091C50222E030E08CE6B0
:1008800096E00E94291467ED71E08CE696E00E94E4
:10089000641240910401509105016091060170912C
:1008A000070122E030E08CE696E00E94291462EE17
:1008B00071E08CE696E00E94641240910001509134
:1008C0000101609102017091030122E030E08CE6A9
:1008D00096E00E9429146FEE71E08CE696E00E948B
:1008E00064126EEE71E08CE696E00C9481128EE05C
:1008F00090E00E94A6018C3721E09207F0F1893840
:1009000021E09207E8F18E3921E09207E0F1883C7E
:1009100021E09207D8F18C3F21E09207D0F1873295
:1009200022E09207C8F1873622E09207C0F1883AA8
:1009300022E09207B8F18A3E22E09207B0F18132BC
:1009400023E09207A8F1813423E09207A0F18E36CC
:1009500023E0920798F1813923E0920790F18C3AD5
:1009600023E0920788F1873C23E0920780F18E3DD7
:10097000934080F58EE091E0089581E790E008953E
:1009800084E490E008958AE590E008958EE990E08F
:10099000089587E890E008958BEC90E0089584EB4B
:1009A00090E0089587E190E008958DE290E0089549
:1009B00088EF90E0089581EE90E0089582E591E05F
:1009C000089580E090E0089585E291E008958BE33A
:1009D00091E008958FEF9FEF089586E995E00E94DA
:1009E000E70C86E995E00E94060D811106C061EFD3
:1009F00071E08CE696E00E94811286E995E00E9403
:100A0000AA0D86E995E00E949F0D64E070E086E9FA
:100A100095E00C94B50DCF93DF931F92CDB7DEB761
:100A200084E00E9403100197A9F486E995E00E94F2
:100A3000990D982F82FD02C080E001C080E493FFF1
:100A40000AC086E995E00E94A40D89830E94ED0406
:100A5000898101C080E00F90DF91CF91089561E01E
:100A60008AE00E94940F62E084E00E94940F0E944A
:100A7000C20D8CB5837F84608CBD8CB58C7F81600A
:100A80008CBD8DB58E7F8DBD8CB58F7D8CBD0E944C
:100A9000ED0462E572E08CE696E00C948112A89574
:100AA00088E10FB6F89480936000109260000FBE4A
:100AB00026E040E855E260E070E08CE696E00E94B7
:100AC0000F1162E083E00E94940F62E082E00E94D6
:100AD000940F60E08EE00E94940F60E08FE00E942F
:100AE000940F60E080E10E94940F60E081E10E9439
:100AF000940F61E087E00E94940F0E942F018DE91E
:100B000095E00E94EA098DE995E00E94300A60E8CC
:100B10008DE995E00E944C0A8DE995E00E94650AF6
:100B20008DE995E00E943E0A8CE995E00E949C0BBD
:100B30000E942F0510928F050E94BC0E60939205B3
:100B400070939305809394059093950542E050E04F
:100B500065E970E080E00E94F80D42E050E068E056
:100B600071E081E00E94F80D78946AE672E08CE60C
:100B700096E00E9481120C944D038DE995E00E944D
:100B8000E9098CE995E00E949B0B24E030E04AE003
:100B900050E06EE870E086E995E00C94440CAF926A
:100BA000BF92CF92DF92EF92FF920F931F93CF935A
:100BB000DF93A8950E94BC0EC0909205D09093053B
:100BC000E0909405F09095056C197D098E099F09B8
:100BD000683E73408105910508F4CCC088EEC80ECC
:100BE00083E0D81EE11CF11CC0929205D0929305BF
:100BF000E0929405F092950580918E058F5F88377D
:100C000018F480938E0502C010928E050E94560142
:100C10006093E8027093E9028093EA029093EB02FA
:100C20000E947704EC019093ED028093EC02009116
:100C30008E0510E0C090E802D090E902E090EA0250
:100C4000F090EB02F801E65FFA4F5F01C701B601D1
:100C50000E94FD14F5016083F801EE0FFF1FE65EB0
:100C6000FB4FD183C083A0908C05B12C8501000F70
:100C7000111F000F111F0E501C4FF80120813181F0
:100C800042815381C701B6010E94E015181664F431
:100C9000F801C082D182E282F382F501EE0FFF1FDC
:100CA000E252FC4FD183C0832091E4023091E502EF
:100CB0004091E6025091E702C701B6010E94E0159B
:100CC000181664F4C092E402D092E502E092E602C3
:100CD000F092E702D093E302C093E20261E087E082
:100CE0000E94CD0F69E170E080E090E00E94EB0E81
:100CF00060E087E00E94CD0F80918F058F5F809329
:100D00008F058C33B8F110928F0580918D058F5F20
:100D10008C3318F480938D0502C010928D0580915C
:100D20008C058F5F8A3018F480938C0502C0109276
:100D30008C05E0918D0524E0E29FF0011124E25141
:100D4000FD4F1082118212821382E0918C0584E0A3
:100D5000E89FF0011124EE50FC4F108211821282A4
:100D60001382809190059091910501969093910541
:100D70008093900584E00E940310019721F40E9463
:100D80000B05809382058CE696E00E942C10892B3F
:100D9000F1F08CE696E00E944510813259F40E94F1
:100DA0004D0368EE73E080E090E00E94EB0E0E943D
:100DB0000B050DC0803419F40E942F0108C0833246
:100DC00031F468E873E180E090E00E94EB0E8091DE
:100DD0009005909191058B3A954010F00E942F015B
:100DE00064E670E080E090E0DF91CF911F910F9179
:100DF000FF90EF90DF90CF90BF90AF900C94EB0EF0
:100E00008091CE0590E02091CF05821B9109089535
:100E10002091CF058091CE05281750F4E22FF0E005
:100E2000E053FA4F808190E02F5F2093CF05089523
:100E30008FEF9FEF0895E091CF058091CE05E817E1
:100E400030F4F0E0E053FA4F808190E008958FEFA6
:100E50009FEF08950895CF92DF92EF92FF920F9344
:100E60001F93CF93DF937C01CB018A012091AA05C8
:100E7000222389F0EB016B01C40ED51ECC15DD05D4
:100E800069F06991D701ED91FC910190F081E02D1D
:100E9000C7010995F3CF642F0E948C08C801DF9128
:100EA000CF911F910F91FF90EF90DF90CF90089519
:100EB000CF93DF931F92CDB7DEB769832091AA0548
:100EC0002223D1F02091AB05203240F021E030E028
:100ED000FC013383228380E090E015C08091AC0553
:100EE000E82FF0E0E355FA4F998190838F5F80936C
:100EF000AC058093AB0505C061E0CE0101960E9470
:100F00008C0881E090E00F90DF91CF910895FC0173
:100F10001382128248EE53E060E070E04483558310
:100F2000668377838BE892E09183808308951092A3
:100F3000CF051092CE051092AC051092AB050C9423
:100F4000D707862F413208F040E260ED75E00E943D
:100F5000F5071092CF058093CE05089521E00C94FB
:100F6000A10781E08093AA056093CD051092AC059E
:100F70001092AB0508950C94B1070F93062F21E052
:100F80004091AB056DEA75E08091CD050E9439086E
:100F90001092AC051092AB051092AA050F9108951E
:100FA00061E00C94BD078EE995E00C9487071092E0
:100FB0005D0681E080935B0610925A0661E082E153
:100FC0000E94CD0F61E083E10E94CD0FE9EBF0E0DC
:100FD00080818E7F808380818D7F808388E4809371
:100FE000B80085E48093BC000895413208F03FC00A
:100FF00090915D069111FCCF91E090935D06209356
:101000005B062FEF2093F00510923506240F2093F6
:10101000340690935C0690915C06880F892B809330
:101020005C0680915A06813041F410925A068091F4
:101030005C068093BB0085EC01C085EE8093BC000C
:1010400080915D068130E1F380913506841710F4BC
:101050004091350626E336E0FB01D9018A2F821B39
:10106000841718F48D918193F9CF842F089580E02F
:1010700008950F93413208F046C090915D0691119A
:10108000FCCF92E090935D0600935B069FEF9093F8
:10109000F0051092350640933406FB0166E376E0D6
:1010A000DB019A2F961B941718F491919D93F9CF19
:1010B00010925C0690915C06880F892B80935C06E9
:1010C00080915A06813041F410925A0680915C0654
:1010D0008093BB0085EC01C085EE8093BC00222389
:1010E00021F080915D068230E1F38091F0058F3F21
:1010F00061F08091F005803251F08091F0058033ED
:1011000041F483E007C081E005C080E003C082E0D5
:1011100001C084E00F910895613298F420915D063A
:10112000243089F460931206FC0184E196E0DC012E
:101130002A2F281B261718F421912D93F9CF80E030
:10114000089581E0089582E0089585ED8093BC00C4
:101150008091BC0084FDFCCF10925D06089585EC63
:101160008093BC0010925D0608951F920F920FB6F7
:101170000F9211242F933F934F935F936F937F931D
:101180008F939F93AF93BF93EF93FF938091B90099
:10119000887F803609F49CC068F5883209F45BC00A
:1011A00090F4803109F454C038F4882309F4F5C070
:1011B000883009F44DC0F5C0883109F44CC0803244
:1011C00009F45DC0EEC0803409F468C048F480338F
:1011D00009F455C0883309F0E4C08093F005A8C035
:1011E000803509F44FC0883509F45DC0883409F0B2
:1011F000D8C0D5C0883909F4C6C0A8F4883709F426
:1012000067C038F4883609F463C0803709F460C0D9
:10121000C8C0883809F4B7C0803909F45FC0803885
:1012200009F0BFC05BC0803B09F485C038F4803A48
:1012300009F466C0883A09F47EC0B3C0803C09F462
:10124000A6C0883C09F4A3C0883B09F489C0A9C0A2
:1012500080915C0610C090913506809134069817F5
:1012600070F5E091350681E08E0F80933506F0E051
:10127000EA5CF94F80818093BB0085EC85C0809348
:10128000F0058DC0E091350681E08E0F8093350624
:101290008091BB00F0E0EA5CF94F808390913506C5
:1012A000809134066DC0E091350681E08E0F809309
:1012B00035068091BB00F0E0EA5CF94F80838091B5
:1012C0005B0681116CC081E080935A0684EA60C09D
:1012D00083E080935D061092F105CFCF8091F105F8
:1012E000803208F050C0E091F10581E08E0F8093CC
:1012F000F1058091BB00F0E0EE50FA4F8083BDCF46
:101300008091F105803230F4E091F105F0E0EE508B
:10131000FA4F10820E94A5086091F10570E0E091FB
:101320005606F091570682EF95E009951092F10567
:101330000E94AF0836C084E080935D0610921306C9
:1013400010921206E0915806F09159060995809185
:101350001206811105C081E08093120610921406D6
:10136000E091130681E08E0F80931306F0E0EC5EAF
:10137000F94F80818093BB009091130680911206F3
:10138000981708F47ACF85E88093BC000AC085ECF2
:101390008093BC0010925D0604C01092F0050E947C
:1013A000A508FF91EF91BF91AF919F918F917F9190
:1013B0006F915F914F913F912F910F900FBE0F90C2
:1013C0001F901895DC01ED91FC910190F081E02DCA
:1013D000099408958EE995E00C949707CF93C62F52
:1013E00060E670E08EE995E00E94BB076C2F8EE905
:1013F00095E00E94580760E08EE995E00E94BD07E5
:1014000041E050E060E670E08EE995E00E94AE07B2
:101410008EE995E00E940807CF9108951F93CF931E
:10142000DF931F92CDB7DEB7162F60E670E08EE92E
:1014300095E049830E94BB07612F8EE995E00E94E9
:1014400058074981642F8EE995E00E94580761E0B2
:101450008EE995E00F90DF91CF911F910C94BD071D
:10146000CF93DF93EC0166E20E94EE09482F4F779D
:1014700066E2CE01DF91CF910C940E0ACF93DF93F9
:10148000EC0166E20E94EE09482F416066E2CE015F
:10149000DF91CF910C940E0A1F93CF93DF93EC0151
:1014A000162F683008F017E066E2CE010E94EE09C0
:1014B000482F477C110F110F110F412B66E2CE010F
:1014C000DF91CF911F910C940E0A47E063E10C94D9
:1014D0000E0ACF93DF93EC0166E20E94EE09482FDB
:1014E0004D7F66E2CE010E940E0A66E2CE010E94A6
:1014F000EE09482F426066E2CE01DF91CF910C9455
:101500000E0ACF92DF92EF92FF921F93CF93DF9359
:101510007C0160E00E94EE0960E0C7010E94EE09D4
:1015200060E670E08EE995E00E94BB0761E070E044
:101530008EE995E00E94E20960E08EE995E00E9464
:10154000BD0743E050E060E670E08EE995E00E9460
:10155000AE07833009F041C08EE995E00E9408078C
:10156000D82F8EE995E00E940807182F8EE995E0A4
:101570000E940807C82FC7010E94690A812F90E0C6
:10158000A0E0B0E06627782F892F9A2F8D2B6C2B47
:10159000C073D0E034E0D595C7953A95E1F746E0C1
:1015A00095958795779567954A95D1F70E9430155F
:1015B0006B017C016C2F70E080E090E00E942E15A2
:1015C00020E030E040E85EE30E94E4159B01AC01BE
:1015D000C701B6010E942D1404C060E070EC89E7D9
:1015E00094ECDF91CF911F91FF90EF90DF90CF901F
:1015F0000895CF92DF92EF92FF92CF93DF936C0129
:1016000060E00E94EE09C9E5D2E060E0C6010E94F8
:10161000EE0981FD0EC0219729F420E030EC49E766
:1016200054EC6BC061E070E080E090E00E94EB0E53
:10163000ECCF60E670E08EE995E00E94BB0764E0C5
:1016400070E08EE995E00E94E20960E08EE995E0A5
:101650000E94BD0742E050E060E670E08EE995E050
:101660000E94AE078230C9F68EE995E00E94080715
:10167000C82F8EE995E00E940807D82FC6010E9466
:10168000690AC7FD03C06C2FC0E00CC0FC2EE12C22
:10169000ED0EF11C222733272E193F09632FD22F7D
:1016A000D07FC1E070E080E090E00E9430156B01D7
:1016B0007C016D2F70E054E0759567955A95E1F7C0
:1016C000882777FD8095982F0E94301520E030E024
:1016D00040E85DE30E94E4159B01AC01C701B6013F
:1016E0000E942D149B01AC01CC2339F060E070E026
:1016F000CB010E942C149B01AC01B901CA01DF91FE
:10170000CF91FF90EF90DF90CF9008950E94F90A5B
:1017100020E030E040E151E40E94E41520E030E0B8
:1017200040EA50E40E94951420E030E040E052E4AA
:101730000E942D14089508958EE995E00E94970760
:1017400008950F931F93CB01A0E0B0E0BA2FA92F0B
:10175000982F8827842BE7E1F0E040E050E868E923
:1017600070E08C019D010E2E04C0369527951795CB
:1017700007950A94D2F700FF04C084279527A6276F
:10178000B72776956795579547953197E730F105D7
:1017900041F71F910F910895EF92FF920F931F93BE
:1017A000CF93DF937C0160E470E08EE995E00E94C6
:1017B000BB0765EF70E08EE995E00E94E2098EE9D3
:1017C00095E00E94D00767E370E080E090E00E941F
:1017D000EB0E43E050E060E470E08EE995E00E949B
:1017E000AE0705E610E08EE995E00E94000703973A
:1017F00074F461E070E080E090E00E94EB0E015034
:10180000110989F760E070E889E794E436C08EE951
:1018100095E00E940807082F8EE995E00E940807CE
:10182000182F8EE995E00E940807D02F90E0C92F6D
:10183000C12B482FBE01C7010E94A10B811119C005
:10184000BE016C7F80E090E00E942E1520E030E029
:1018500040E857E30E94E41520E030E04AEF52E40C
:101860000E94E41520E030E040EC50E40E942C148B
:1018700004C060E070EC89E794E4DF91CF911F91A0
:101880000F91FF90EF900895CF93DF93EC01842F99
:10189000798368834A835B833D832C8361E00E9464
:1018A000CD0F61E08A810E94940F60E08C81DF910E
:1018B000CF910C94940FEF92FF921F93CF93DF93ED
:1018C0001F92CDB7DEB77C01162F60E0DC011296C7
:1018D0008C9149830E94CD0FD701ED91FC91812F0E
:1018E0000995D701ED91FC914981842F0995182F15
:1018F00061E0F70182810E94CD0F812F0F90DF916F
:10190000CF911F91FF90EF9008956F73606440E056
:101910000C945B0C662339F081E060FD03C0669592
:101920008F5FFBCF089580E00895EF92FF920F93B1
:101930001F93CF93DF93EC01F62E042FE22E0E942B
:10194000850C102F10951823002371F0602FCE0105
:101950000E948A0C2E2D8150082E01C0220F0A945D
:10196000EAF7412F422B02C0412F4E296F2D6F7392
:10197000CE01DF91CF911F910F91FF90EF900C94CA
:101980005B0CEF92FF921F93CF93DF931F92CDB723
:10199000DEB77C0149830E94850C4981182F1423EE
:1019A000442369F0642FC7010E948A0C212F30E084
:1019B000815002C0359527958A95E2F7122F812F25
:1019C0000F90DF91CF911F91FF90EF90089546E91E
:1019D0006CE30E945B0C62E070E080E090E00C94AD
:1019E000EB0ECF93DF93EC0120E041E060E00E943A
:1019F000950C46E96DE3CE010E945B0C63E070E05C
:101A000080E090E0DF91CF910C94EB0E4F925F92CB
:101A10006F927F928F929F92AF92BF92CF92DF92FE
:101A2000EF92FF920F931F93CF93DF93EC0120E08F
:101A300040EC63E00E94950C21E040E868E0CE01B4
:101A40000E94950C812C912C0FEF1FE785E3A82EA7
:101A50008CE0B82E282D4FE068E0CE010E94950C56
:101A600062E070E080E090E00E94EB0E8C810E94CA
:101A700003106C010E94BC0E2B013C0124E6420EB7
:101A8000511C611C711CE12CF12C0E94BC0E6419CC
:101A900075098609970997FF0BC08C810E94031076
:101AA000C816D9061CF42FEFE21AF20A6C01EDCF2A
:101AB000C5018E199F097C0197FF03C0F194E19441
:101AC000F108E016F10614F0780101C0982C839417
:101AD00090E1891611F08701BDCF292D4FE068E014
:101AE000CE010E94950C62E070E080E090E00E94E0
:101AF000EB0E20E040E868E0CE010E94950CCE019C
:101B00000E94F10C81E02EE6E216F1040CF080E078
:101B1000DF91CF911F910F91FF90EF90DF90CF90C9
:101B2000BF90AF909F908F907F906F905F904F90FD
:101B300008954FE063E00E94C10C90E0089520E01A
:101B400040E263E00C94950C4FE367E00E94C10C07
:101B500090E008952EE04EE360E00C94950C40E791
:101B600061E00E94C10C90E00895CF93DF93EC01F7
:101B7000262F40E761E00E94950CCE01DF91CF91C6
:101B80000C94AF0DCF93CFB7F89480915E0681117E
:101B900027C0EAE9F0E08491E6E8F0E09491E82FCC
:101BA000F0E0EE0FFF1FE854FF4FA591B4918C9128
:101BB000892321F461E08AE00E94CD0F61E08AE090
:101BC0000E94940F8CB580618CBD8CB580648CBDF7
:101BD00061E08DE00E94940F61E08BE00E94940F21
:101BE00080915E068F5F80935E06CFBFCF91089590
:101BF0008230E8F4E82FF0E0EE0FFF1FE15AF94FD2
:101C000071836083813041F0809169008C7F842BE7
:101C100080936900E89A089580916900440F551FE8
:101C2000440F551F837F842B80936900E99A0895A0
:101C30001F920F920FB60F9211242F933F934F9341
:101C40005F936F937F938F939F93AF93BF93EF9324
:101C5000FF9380915F0690916006892B29F0E091B7
:101C60005F06F09160060995FF91EF91BF91AF91EA
:101C70009F918F917F916F915F914F913F912F91A4
:101C80000F900FBE0F901F9018951F920F920FB6D6
:101C90000F9211242F933F934F935F936F937F93F2
:101CA0008F939F93AF93BF93EF93FF9380916106C0
:101CB00090916206892B29F0E0916106F09162060D
:101CC0000995FF91EF91BF91AF919F918F917F9176
:101CD0006F915F914F913F912F910F900FBE0F9099
:101CE0001F9018951F920F920FB60F9211242F93E9
:101CF0003F938F939F93AF93BF938091640690918E
:101D00006506A0916606B09167063091630623E0F0
:101D1000230F2D3720F40196A11DB11D05C026E823
:101D2000230F0296A11DB11D2093630680936406C4
:101D300090936506A0936606B09367068091680647
:101D400090916906A0916A06B0916B060196A11D5B
:101D5000B11D8093680690936906A0936A06B093BC
:101D60006B06BF91AF919F918F913F912F910F90F3
:101D70000FBE0F901F9018952FB7F89460916406CE
:101D80007091650680916606909167062FBF089551
:101D90003FB7F8948091680690916906A0916A0611
:101DA000B0916B0626B5A89B05C02F3F19F0019690
:101DB000A11DB11D3FBF6627782F892F9A2F620F73
:101DC000711D811D911D42E0660F771F881F991FAD
:101DD0004A95D1F70895CF92DF92EF92FF92CF9379
:101DE000DF936B017C010E94C80EEB01C114D1048A
:101DF000E104F10489F00E942B140E94C80E6C1BB0
:101E00007D0B683E734090F381E0C81AD108E10869
:101E1000F108C851DC4FEACFDF91CF91FF90EF90EE
:101E2000DF90CF900895789484B5826084BD84B5A6
:101E3000816084BD85B5826085BD85B5816085BDC5
:101E4000EEE6F0E0808181608083E1E8F0E01082DE
:101E5000808182608083808181608083E0E8F0E01F
:101E6000808181608083E1EBF0E080818460808309
:101E7000E0EBF0E0808181608083EAE7F0E0808140
:101E800084608083808182608083808181608083A0
:101E90008081806880831092C10008958E3008F0A0
:101EA0008E5087702091080190E4299F90011124A1
:101EB000822B80937C0080917A00806480937A00EA
:101EC00080917A0086FDFCCF809178002091790086
:101ED00090E0922B0895833081F028F4813099F0BE
:101EE0008230A1F008958730A9F08830B9F08430AD
:101EF000D1F4809180008F7D03C0809180008F7726
:101F000080938000089584B58F7702C084B58F7D5B
:101F100084BD08958091B0008F7703C08091B00098
:101F20008F7D8093B0000895CF93DF9390E0FC0104
:101F3000E458FF4F2491FC01E057FF4F8491882320
:101F400049F190E0880F991FFC01E854FF4FA591DB
:101F5000B49182559F4FFC01C591D4919FB76111F7
:101F600008C0F8948C91209582238C9388818223D9
:101F70000AC0623051F4F8948C91322F309583234B
:101F80008C938881822B888304C0F8948C91822B57
:101F90008C939FBFDF91CF9108950F931F93CF93A1
:101FA000DF931F92CDB7DEB7282F30E0F901E85953
:101FB000FF4F8491F901E458FF4F1491F901E05764
:101FC000FF4F04910023C9F0882321F069830E9408
:101FD0006B0F6981E02FF0E0EE0FFF1FE255FF4F1E
:101FE000A591B4919FB7F8948C91611103C010959D
:101FF000812301C0812B8C939FBF0F90DF91CF91E4
:102000001F910F910895CF93DF93282F30E0F901AE
:10201000E859FF4F8491F901E458FF4FD491F90139
:10202000E057FF4FC491CC2391F081110E946B0FB8
:10203000EC2FF0E0EE0FFF1FEC55FF4FA591B49190
:102040002C912D2381E090E021F480E002C080E01B
:1020500090E0DF91CF910895FC01818D228D90E079
:10206000805C9F4F821B91098F7399270895FC0113
:10207000918D828D981731F0828DE80FF11D858D3D
:1020800090E008958FEF9FEF0895FC01918D828D70
:10209000981761F0828DDF01A80FB11D5D968C91BC
:1020A000928D9F5F9F73928F90E008958FEF9FEFC7
:1020B000089589EC91E1892B49F080E090E0892B2B
:1020C00029F00E94C91181110C9400000895FC01AF
:1020D000848DDF01A80FB11DA35ABF4F2C91848DB1
:1020E00090E001968F739927848FA689B7892C93E6
:1020F000A089B1898C9180648C93938D848D981381
:1021000006C00288F389E02D80818F7D8083089549
:10211000CF93DF93EC01888D8823C9F0EA89FB898E
:10212000808185FD05C0A889B9898C9186FD0FC085
:102130000FB607FCF5CF808185FFF2CFA889B9895A
:102140008C9185FFEDCFCE010E946710E7CFDF9124
:10215000CF910895CF92DF92FF920F931F93CF9369
:10216000DF931F92CDB7DEB76C01DC015B969C91CB
:102170005B975C968C915C97981307C05096ED9195
:10218000FC915197808185FD32C0F601038D10E0EE
:102190000F5F1F4F0F731127F02EF601848DF81279
:1021A00011C00FB607FCF9CFD6015096ED91FC9106
:1021B0005197808185FFF1CFC60169830E94671026
:1021C0006981EBCF838DE80FF11DE35AFF4F6083E8
:1021D000D6015B960C935B975296ED91FC915397C9
:1021E00080818062808381E058968C930DC0D601F7
:1021F0005696ED91FC91579760835096ED91FC9126
:10220000519780818064808381E090E00F90DF911E
:10221000CF911F910F91FF90DF90CF900895BF92C3
:10222000CF92DF92EF92FF92CF93DF93EC016A019E
:102230007B01B22EE889F98982E08083411581EE25
:10224000580761057105A1F060E079E08DE390E049
:10225000A70196010E944B162150310941095109ED
:102260005695479537952795211580E1380798F0C1
:10227000E889F989108260E874E88EE190E0A701AE
:1022800096010E944B16215031094109510956957A
:10229000479537952795EC85FD853083EE85FF853D
:1022A0002083188EEC89FD89B082EA89FB898081C0
:1022B00080618083EA89FB89808188608083EA89E4
:1022C000FB89808180688083EA89FB8980818F7D9A
:1022D0008083DF91CF91FF90EF90DF90CF90BF9000
:1022E00008951F920F920FB60F9211242F938F9380
:1022F0009F93EF93FF93E0917C06F0917D068081A0
:10230000E0918206F091830682FD12C09081809157
:1023100085068F5F8F7320918606821751F0E091BA
:102320008506F0E0E459F94F958F8093850601C04A
:102330008081FF91EF919F918F912F910F900FBE10
:102340000F901F9018951F920F920FB60F921124A5
:102350002F933F934F935F936F937F938F939F93AD
:10236000AF93BF93EF93FF938CE696E00E946710C4
:10237000FF91EF91BF91AF919F918F917F916F915D
:102380005F914F913F912F910F900FBE0F901F9033
:1023900018958CE696E00E942C1021E0892B09F418
:1023A00020E0822F089510926F0610926E0688EE3C
:1023B00093E0A0E0B0E08093700690937106A09344
:1023C0007206B09373068BE992E090936D0680934A
:1023D0006C0685EC90E0909379068093780684EC07
:1023E00090E090937B0680937A0680EC90E0909347
:1023F0007D0680937C0681EC90E090937F0680932D
:102400007E0682EC90E0909381068093800686ECB5
:1024100090E0909383068093820610928506109236
:1024200086061092870610928806089508950E94E5
:10243000130F0E9416120E944F05C9E5D0E10E94B9
:10244000CF052097E1F30E945910F9CFCF92DF9288
:10245000EF92FF920F931F93CF93DF936C017A015A
:10246000EB01E60EF71E00E010E0CE15DF0561F08F
:102470006991D601ED91FC910190F081E02DC601AA
:102480000995080F191FF1CFC801DF91CF911F9156
:102490000F91FF90EF90DF90CF9008956115710537
:1024A00081F0DB010D900020E9F7AD0141505109A9
:1024B000461B570BDC01ED91FC910280F381E02D6E
:1024C000099480E090E008950C944E12DC01ED91A7
:1024D000FC910190F081E02D09940F931F93CF930D
:1024E000DF93EC016DE00E9466128C016AE0CE0180
:1024F0000E946612800F911FDF91CF911F910F9163
:1025000008950F931F93CF93DF93EC010E944E1217
:102510008C01CE010E946D12800F911FDF91CF912F
:102520001F910F9108958F929F92AF92BF92CF9279
:10253000DF92EF92FF920F931F93CF93DF93CDB76C
:10254000DEB7A1970FB6F894DEBF0FBECDBF7C01FA
:10255000C42EE52FCB01D22E19A221E02D1510F0AB
:102560002AE0D22E8E010F5D1F4F8D2C912CA12CB5
:10257000B12C6C2D7E2FA50194010E944B168C2D41
:10258000D29E80191124015011098A3014F4805D03
:1025900001C0895CF8018083211531054105510591
:1025A00021F0C22EE32FCA01E4CFB801C7010E9477
:1025B0004E12A1960FB6F894DEBF0FBECDBFDF91CD
:1025C000CF911F910F91FF90EF90DF90CF90BF9030
:1025D000AF909F908F900895CF92DF92EF92FF92ED
:1025E0000F931F93CF93DF93EC016A017B012115B9
:1025F000310579F4E881F9810190F081E02D642FB3
:10260000DF91CF911F910F91FF90EF90DF90CF90CE
:1026100009942A303105E9F477FF1AC06DE20E946F
:1026200066128C0144275527BA014C195D096E09C1
:102630007F092AE0CE010E949312800F911FDF9143
:10264000CF911F910F91FF90EF90DF90CF90089561
:102650002AE0B701A601CE01DF91CF911F910F9122
:10266000FF90EF90DF90CF900C9493129A01AB0102
:10267000662757FD6095762F0C94EC124F925F926F
:102680006F927F928F929F92AF92BF92CF92DF9282
:10269000EF92FF920F931F93CF93DF93EC016A01A8
:1026A0007B01B22E9A01AB01C701B6010E94471609
:1026B000882319F067EA72E027C026013701E89401
:1026C00077F82FEF3FEF4FE75FE7C301B2010E94BA
:1026D000471681110DC02FEF3FEF4FE75FE7C301B2
:1026E000B2010E94911418161CF46BEA72E00CC03F
:1026F0002FEF3FEF4FE75FE4C701B6010E94E015FF
:102700001816ACF46FEA72E0CE01DF91CF911F9101
:102710000F91FF90EF90DF90CF90BF90AF909F9080
:102720008F907F906F905F904F900C944E122FEF90
:102730003FEF4FE75FECC701B6010E94911487FDA0
:10274000E1CF20E030E0A901C701B6010E94911459
:1027500087FF0AC06DE2CE010E9466128C01F7FA73
:10276000F094F7F8F09402C000E010E0A12C60E0D3
:1027700070E080E09FE3AB1441F020E030E040E205
:1027800051E40E949514A394F6CF9B01AC01C701BC
:10279000B6010E942D146B017C010E9402152B01D1
:1027A0003C010E942E159B01AC01C701B6010E949D
:1027B0002C146B017C012AE0B301A201CE010E941E
:1027C0009312080F191FBB2039F063EB72E0CE01A2
:1027D0000E944E12080F191F7B2C772041F120E038
:1027E00030E040E251E4C701B6010E94E4156B01FC
:1027F0007C010E94FD144B01AA2497FCA094BA2CE2
:102800002AE030E0B501A401CE010E94EC12080FCD
:10281000191FC501B4010E9430159B01AC01C7010D
:10282000B6010E942C146B017C017A94D6CFC801AA
:10283000DF91CF911F910F91FF90EF90DF90CF909C
:10284000BF90AF909F908F907F906F905F904F90D0
:1028500008950C943E1308955058BB27AA270ED014
:1028600075C166D130F06BD120F031F49F3F11F487
:102870001EF45BC10EF4E095E7FB51C1E92F77D15F
:1028800080F3BA17620773078407950718F071F48D
:102890009EF58FC10EF4E0950B2EBA2FA02D0B01E3
:1028A000B90190010C01CA01A0011124FF27591B95
:1028B00099F0593F50F4503E68F11A16F040A22F9B
:1028C000232F342F4427585FF3CF4695379527950C
:1028D000A795F0405395C9F77EF41F16BA0B620B0B
:1028E000730B840BBAF09150A1F0FF0FBB1F661F52
:1028F000771F881FC2F70EC0BA0F621F731F841F95
:1029000048F4879577956795B795F7959E3F08F0BA
:10291000B3CF9395880F08F09927EE0F9795879579
:102920000895D9D008F481E008950CD00FC107D1E3
:1029300040F0FED030F021F45F3F19F0F0C05111AB
:1029400039C1F3C014D198F39923C9F35523B1F3D6
:10295000951B550BBB27AA2762177307840738F00E
:102960009F5F5F4F220F331F441FAA1FA9F333D06D
:102970000E2E3AF0E0E830D091505040E695001C21
:10298000CAF729D0FE2F27D0660F771F881FBB1FDD
:10299000261737074807AB07B0E809F0BB0B802DB7
:1029A000BF01FF2793585F4F2AF09E3F510568F003
:1029B000B6C000C15F3FECF3983EDCF38695779597
:1029C0006795B795F7959F5FC9F7880F911D969505
:1029D000879597F90895E1E0660F771F881FBB1F61
:1029E000621773078407BA0720F0621B730B840B0E
:1029F000BA0BEE1F88F7E095089504D06894B111E2
:102A0000D9C00895BCD088F09F5790F0B92F99276E
:102A1000B751A0F0D1F0660F771F881F991F1AF0E9
:102A2000BA95C9F712C0B13081F0C3D0B1E00895B2
:102A3000C0C0672F782F8827B85F39F0B93FCCF333
:102A4000869577956795B395D9F73EF490958095DF
:102A5000709561957F4F8F4F9F4F0895E89409C0FF
:102A600097FB3EF490958095709561957F4F8F4FC1
:102A70009F4F9923A9F0F92F96E9BB279395F695D7
:102A8000879577956795B795F111F8CFFAF4BB0F55
:102A900011F460FF1BC06F5F7F4F8F4F9F4F16C0B9
:102AA000882311F096E911C0772321F09EE8872F43
:102AB000762F05C0662371F096E8862F70E060E0FF
:102AC0002AF09A95660F771F881FDAF7880F969578
:102AD000879597F90895990F0008550FAA0BE0E81C
:102AE000FEEF16161706E807F907C0F012161306D0
:102AF000E407F50798F0621B730B840B950B39F410
:102B00000A2661F0232B242B252B21F408950A2675
:102B100009F4A140A6958FEF811D811D089597F9B5
:102B20009F6780E870E060E008959FEF80EC089573
:102B300000240A941616170618060906089500249C
:102B40000A9412161306140605060895092E039416
:102B5000000C11F4882352F0BB0F40F4BF2B11F48A
:102B600060FF04C06F5F7F4F8F4F9F4F089557FDE9
:102B70009058440F551F59F05F3F71F04795880FEB
:102B800097FB991F61F09F3F79F087950895121682
:102B900013061406551FF2CF4695F1DF08C016162E
:102BA00017061806991FF1CF8695710561050894DF
:102BB0000895E894BB2766277727CB0197F90895F6
:102BC0008ADF08F48FEF08950BD0C0CFB1DF28F073
:102BD000B6DF18F0952309F0A2CFA7CF1124EACFD2
:102BE000C6DFA0F3959FD1F3950F50E0551F629F6C
:102BF000F001729FBB27F00DB11D639FAA27F00D56
:102C0000B11DAA1F649F6627B00DA11D661F829F7C
:102C10002227B00DA11D621F739FB00DA11D621F61
:102C2000839FA00D611D221F749F3327A00D611D7E
:102C3000231F849F600D211D822F762F6A2F112460
:102C40009F5750408AF0E1F088234AF0EE0FFF1FB3
:102C5000BB1F661F771F881F91505040A9F79E3FEA
:102C6000510570F05CCFA6CF5F3FECF3983EDCF3EC
:102C7000869577956795B795F795E7959F5FC1F727
:102C8000FE2B880F911D9695879597F9089523DF60
:102C9000880B990B0895A1E21A2EAA1BBB1BFD01FC
:102CA0000DC0AA1FBB1FEE1FFF1FA217B307E4072B
:102CB000F50720F0A21BB30BE40BF50B661F771F83
:102CC000881F991F1A9469F7609570958095909563
:102CD0009B01AC01BD01CF010895EE0FFF1F0590D0
:0A2CE000F491E02D0994F894FFCF61
:102CEA00EC51383FCDCC3C410157696E646775732E
:102CFA0074206C617374203130206D696E7574654F
:102D0A00733A0020005261696E20686F75723A004A
:102D1A00242C77696E646469723D002C77696E644D
:102D2A0073706565646D70683D002C77696E6467C1
:102D3A007573746D70683D002C77696E646775737E
:102D4A00746469723D002C77696E647370646D7087
:102D5A00685F617667326D3D002C77696E646469DD
:102D6A00725F617667326D3D002C77696E646775B4
:102D7A0073746D70685F31306D3D002C77696E64D5
:102D8A00677573746469725F31306D3D002C6875C4
:102D9A006D69646974793D002C74656D70663D00D7
:102DAA002C7261696E696E3D002C6461696C79727E
:102DBA0061696E696E3D002C626174745F6C766C39
:102DCA003D002C6C696768745F6C766C3D00232C3F
:102DDA000054756E696E67206F7574206F66207275
:102DEA00616E67652C20636865636B20796F757205
:102DFA0020776972696E672C20796F757220736506
:102E0A006E736F7220616E64206D616B65207375DD
:102E1A0072652070687973696373206C61777320B7
:102E2A0068617665206E6F74206368616E67656499
:102E3A0021004C696768746E696E672073656E73EA
:102E4A006F72206F6E6C696E650057696D702057DE
:102E5A006561746865722053746174696F6E206F5E
:102E6A006E6C696E6521000000000058072B070090
:102E7A000708071B072A0700000000AA1026122CC1
:102E8A00104510371088106E616E00696E66006F0B
:062E9A007666002E000028
:00000001FF
